:020000040000FA
:1000000053285328532853288B13DF000308DE009E
:1000100083128B1C1F28462081008B10A008031917
:100020004128A61D1828B50A0319B60A0319261671
:100030008B1683164030810683120B1141280B1D4D
:100040002E288B1E2E280514DB308B052728282808
:1000500029282A282B282C28051041280C1C412847
:100060000C10A90A0319AA0A031D412883160C10B3
:1000700083122B186F28AB18C4282B19FF28AB1933
:1000800003295E088300DF0E5F0E09002008820747
:1000900000349634A034AA34B434BE34C934D434D1
:1000A000DF34EA34F1348316FF23900045308100B9
:1000B000023095001E3085009F018C01831285015E
:1000C0009F01073099008C013030900050308B0038
:1000D000A601AB01A0010A30B700E6216F288B17FB
:1000E0000230BC20261A7928851C7D28051E072988
:1000F000722826120430BC20B528AB01AB14EB30BB
:10010000A900FF30AA00AF211C22851876281C22E6
:100110008518762885162622851C8B288512B721FE
:10012000EE30290203182F29A0080319AD28B5289D
:100130001F30B500D130B6000130BC20A008031933
:10014000A82806302002031C72280630A00072285E
:100150000630AE2072283708AE280A30A500A00A63
:100160002122A50BAF2872282122A0080319BA2842
:10017000A003B428A6117228A500262285162622DF
:100180008512A50BBD2808008B172008B700023088
:10019000A0000A30BC202C3084000830B8000310C6
:1001A000B80C0408B900AB01AB15EB30A900FF3067
:1001B000AA00AF21051ADA28B721AB012B153C2183
:1001C000261CD1283908840027088000840A2808C2
:1001D0008000840A0130BC200630A000262226229E
:1001E0000230A000B80BD128D9210A30BC20370832
:1001F000A000B708031D72280A30B70072288B17B9
:100200000230BC20D1288B173708A0006F28AB0123
:100210002B143C21261C7228BD21A61C72280130FB
:10022000340203192029023034020319282903302B
:10023000340203192F290430340203193629722895
:10024000A0080319AB280A302002031DA00A722857
:10025000A008031DA003A0080319A61172280830E6
:10026000A606A61998280430BC207228A0080319F5
:100270003B292008B700B528AB2126102611051E02
:100280003F29B72101300F02031D482977300E02A4
:10029000031C261526194F21261D7A210800AB21A3
:1002A0001322051E742916221622051A7429851692
:1002B000A801A701273084000C30A50016221622C1
:1002C000051E66290014051A63296829051E66297A
:1002D0000310800D1622083025020319840AA50B8D
:1002E0005E29262226222614051E7429B72185128E
:1002F000A7120800AB210D220630A5001022A50B85
:100300007E29051EA4291022051EA4298516A701F1
:10031000A801273084002030A500051A8D29051E6C
:100320008F29102210221022103025020319840A6E
:100330000010051E0014A5030319A1290310800D48
:100340008D292614051AA229051EA429B7212622C3
:10035000262285120800FF30A900FF30AA008E0176
:100360008F0110140C1083160C14831208008316CE
:100370000C1083120C1010100800B401A6102C30C1
:1003800084000830A5000310A50CB40A2708000259
:100390000319CD29840A840AD629840A2808000270
:1003A0000319D429840AD629A6140800A50BC52947
:1003B00008000230F3212C3084000830A50000082A
:1003C0000022F721840AA50BDF2908000230F3215F
:1003D0002C3084000830A500FB218000F721840A1E
:1003E000A50BEC29080083169B00831208008316D6
:1003F0009B0A8312080083161C141A088312080033
:1004000083169A001C1555309D00AA309D009C143F
:100410009C18082A1C11831208005330A200182AC5
:100420005B30A200182A8A30A200182A9230A2005B
:10043000A20B182A1B2A0800CE30A2000830A30005
:100440002A2A0F30A2002830A3002A2A1E30A20038
:100450004F30A300A20B2D2AA30B2A2A2F2A00001B
:02046000080092
:02400E00443F2D
:00000001FF
