:020000040000FA
:1000000053285328532853288B13DF000308DE009E
:1000100083128B1C1F28462081008B10A008031917
:100020004128A61D1828B50A0319B60A0319261671
:100030008B1683164030810683120B1141280B1D4D
:100040002E288B1E2E280514DB308B052728282808
:1000500029282A282B282C28051041280C1C412847
:100060000C10A90A0319AA0A031D412883160C10B3
:1000700083122B186D28AB18C2282B19FD28AB1939
:1000800001295E088300DF0E5F0E09002008820749
:1000900000349634A034AA34B434BE34C934D434D1
:1000A000DF34EA34F1348316FF23900045308100B9
:1000B000023095001E3085008C01831285010730C7
:1000C00099008C013030900050308B00A601AB01BC
:1000D000A0010A30B700E4216D288B170230BA2046
:1000E000261A7728851C7B28051E052970282612CC
:1000F0000430BA20B328AB01AB14EB30A900FF30B9
:10010000AA00AD211A22851874281A22851874288D
:1001100085162422851C89288512B521EE302902F6
:1001200003182D29A0080319AB28B3281F30B500E8
:10013000D130B6000130BA20A0080319A628063035
:100140002002031C70280630A00070280630AC2066
:1001500070283708AC280A30A500A00A1F22A50B7A
:10016000AD2870281F22A0080319B828A003B228C0
:10017000A6117028A5002422851624228512A50B1D
:10018000BB2808008B172008B7000230A0000A30F7
:10019000BA202C3084000830B8000310B80C0408D2
:1001A000B900AB01AB15EB30A900FF30AA00AD21BF
:1001B000051AD828B521AB012B153A21261CCF28CA
:1001C0003908840027088000840A28088000840AEF
:1001D0000130BA200630A000242224220230A000E0
:1001E000B80BCF28D7210A30BA203708A000B708AB
:1001F000031D70280A30B70070288B170230BA2010
:10020000CF288B173708A0006D28AB012B143A219B
:10021000261C7028BB21A61C70280130340203194B
:100220001E2902303402031926290330340203192F
:100230002D2904303402031934297028A008031929
:10024000A9280A302002031DA00A7028A008031D57
:10025000A003A0080319A61170280830A606A61945
:1002600096280430BA207028A008031939292008DC
:10027000B700B328A92126102611051E3D29B52156
:1002800001300F02031D462977300E02031C26158C
:1002900026194D21261D78210800A9211122051EAD
:1002A000722914221422051A72298516A801A701A1
:1002B000273084000C30A50014221422051E642966
:1002C0000014051A61296629051E64290310800D92
:1002D0001422083025020319840AA50B5C29242264
:1002E00024222614051E7229B5218512A7120800A2
:1002F000A9210B220630A5000E22A50B7C29051E84
:10030000A2290E22051EA2298516A701A8012730C1
:1003100084002030A500051A8B29051E8D290E2288
:100320000E220E22103025020319840A0010051E29
:100330000014A50303199F290310800D8B2926148F
:10034000051AA029051EA229B521242224228512DE
:100350000800FF30A900FF30AA008E018F011014A1
:100360000C1083160C148312080083160C108312D1
:100370000C1010100800B401A6102C3084000830B6
:10038000A5000310A50CB40A270800020319CB2905
:10039000840A840AD429840A280800020319D2296D
:1003A000840AD429A6140800A50BC329080002302A
:1003B000F1212C3084000830A5000008FE21F52131
:1003C000840AA50BDD2908000230F1212C308400BD
:1003D0000830A500F9218000F521840AA50BEA293F
:1003E000080083169B008312080083169B0A831261
:1003F000080083161C141A088312080083169A003A
:100400001C1555309D00AA309D009C149C18062A8E
:100410001C11831208005330A200162A5B30A20080
:10042000162A8A30A200162A9230A200A20B162A9F
:10043000192A0800CE30A2000830A300282A0F3065
:10044000A2002830A300282A1E30A2004F30A300AB
:0E045000A20B2B2AA30B282A2D2A000008003D
:02400E00443F2D
:00000001FF
